:040000009FEF03F07B
:08000800046ED8CF05F0E0CF33
:1000100006F00001E9CF0CF0EACF07F0E1CF08F0DD
:10002000E2CF09F0D9CF0AF0DACF0BF0F3CF12F01C
:10003000F4CF13F0FACF14F000C00EF001C00FF0AF
:1000400002C010F003C011F09DAA2AEF00F09EBA82
:100050003DEF01F00EC000F00FC001F010C002F043
:1000600011C003F00CC0E9FF07C0EAFF078E08C00B
:10007000E1FF09C0E2FF0AC0D9FF0BC0DAFF12C0DE
:10008000F3FF13C0F4FF14C0FAFF045006C0E0FFF2
:1000900005C0D8FF1000566A576A010E586EDA6A1A
:1000A000D96A5B6A4E0E5A6EEA6A520EE96E5BC0FE
:1000B000E2FF5AC0E1FF58C059F0D890E550EE0277
:1000C000F3505622F4505722592EF7D756C0DEFF70
:1000D00057C056F0576AD8B0572A5A2AD8B45B2A64
:1000E000582A58500508E0E11200446A436A426AFF
:1000F000416A456A466A010E476EEA6A3C0EE96E3D
:10010000E90604009EAAFDD7AECFECFF0D0EEF5C12
:10011000F8E1EC6A466A465004080DE3036A46506B
:100120003C0FE96E000E0320EA6EEF500D08D8B4C4
:1001300002D0462AF0D7010E465C456E455252E089
:10014000036A45503C0FE96E000E0320EA6EEF5043
:100150005F0B39080EE2036A45503C0FE96E000E52
:100160000320EA6E370EEF5C006E016A026A036AD2
:100170000DD0036A45503C0FE96E000E0320EA6E75
:10018000300EEF5C006E016A026A036A03C04BF036
:1001900002C04AF001C049F000C048F0EACF4DF07B
:1001A000E9CF4CF003C051F002C050F001C04FF055
:1001B00000C04EF0556A546A536A47C052F06BDF74
:1001C0004DC0EAFF4CC0E9FF0050412601504222D9
:1001D000025043220350442247500A0DF3CF47F008
:1001E0004506ACD73C505F0B390807E2370E3C5C44
:1001F000006E016A026A036A06D0300E3C5C006E33
:10020000016A026A036A03C04BF002C04AF001C0EF
:1002100049F000C048F003C051F002C050F001C0E6
:100220004FF000C04EF0556A546A536A47C052F00E
:1002300032DF005041260150422202504322035037
:10024000442241C000F042C001F043C002F044C06B
:1002500003F03EEF01F00900F5520EE0F6CF3CF05E
:10026000F7CF3DF0F55004009EA8FDD7AD6E3CC021
:10027000F6FF3DC0F7FFEFD7120037D703C01AF0E3
:1002800002C019F001C018F000C017F09C0EF66E05
:10029000020EF76EE0DF9E9A2AEF00F06368616E4F
:1002A00067656D656E74206465206C696D69746541
:1002B0000000736965756779667369656B666E00C2
:1002C0008E0E006E24C001F023C002F0036A0152BA
:1002D00009E102C001F0026A080E005E015202E16B
:1002E000006A08D0D89001BE04D00236013600065C
:1002F000F9D7019EE6EF03F02350D8B471D0006E19
:100300002750D8B46DD0002604E3810E002668E2A1
:1003100004D07F0E005E64E363E024C02BF028501D
:100320002B1A248E288E26502A02F4CF2DF0255029
:100330002902F4CF03F0F3CF2CF02A02F3502D263C
:10034000F4502C22000E032226502902F3502D26B1
:10035000F4502C22000E026A0322022224502A02A8
:10036000F3502C26F4500322000E022224502902BE
:10037000F3500326F4500222000E016A0122265097
:100380002802F3502C26F4500322000E02220122F0
:1003900025502802F3500326F4500222000E0122B9
:1003A00024502802F3500226F4500122002A01BEF4
:1003B00005D02C360336023601360006000E2CAE70
:1003C0000AD0032A02220122015005E1025003E172
:1003D000035001E1002A2BBE018E2BAE019E04D0FA
:1003E000006A016A026A036AFDEF03F02750D8B47D
:1003F000A5D0336E2B50D8B4A1D0335E05E37F0E69
:100400003326D8B09BD006D0810E335ED8A096D0CC
:10041000D8B494D033C000F0016A026A036A326A29
:1004200028C031F0318E29C030F02AC02FF0190ECB
:10043000336E2E502F5E0DE2010E305E0AE2315E09
:1004400008E2325E06E2322A312A302A2E502F2666
:1004500028D02D50305E12E2010E315E0FE2325E86
:100460000DE2322A312A2D5030262E502F2619E344
:10047000302A17E1312A15E1322A13D02C50800995
:10048000315E0EE2010E325E0BE2322A2C50800900
:1004900031262D503026E9E3312AE7E1322AE5D72B
:1004A0000380332E01D00BD0D8902F363036313622
:1004B0003236D8900336023601363436BAD734A0F5
:1004C00006D0D890013202320332343202D0000614
:1004D00035E034BE1ED0D8902F3630363136323625
:1004E0002E502F5E07E2010E305E04E2315E02E222
:1004F000325E1AE32D50305E05E2010E315E02E2FB
:10050000325E12E32C508009315E03E2010E325E4E
:100510000BE3032A09E1022A07E1012A05E1002A87
:100520000DE001320232033228C033F02C50331A6E
:1005300033AE02D0018E06D0019E04D0006A016A5B
:10054000026A036A14EF04F02350B608236E036AAC
:1005500024C027F0248ED89024322532263203324C
:10056000023201320032232EF6D727AE0BD0001E06
:10057000011E021E031E002AD8B4012AD8B4022A82
:10058000D8B4032A1DEF04F0D8B203D0EA6A370EBC
:10059000E96E006A016A026A036A376A386A396A70
:1005A0003A6A36503510341033102CE0200E3B6E72
:1005B000D8902F36303631363236373638363936EF
:1005C0003A3636503A5C08E13550395C05E1345032
:1005D000385C02E13350375C0FE33350375E345000
:1005E000D8A0343C385E3550D8A0353C395E365002
:1005F000D8A0363C3A5ED880003601360236033643
:100600003B2ED6D737C0EFFF38C0ECFF39C0ECFF28
:100610003AC0ECFF1200E950276E26AE0DD0270637
:10062000278A231E241E251E261E232AD8B4242AE8
:10063000D8B4252AD8B4262A3B0E2E6E9A0E2D6EDB
:10064000CA0E2C6E2B6A0A0E296ED882EA6A230E15
:10065000E96E26C032F025C031F024C030F023C04E
:100660002FF02EC036F02DC035F02CC034F02BC04A
:1006700033F08ADF015000520FE12950010A0CE0EB
:1006800027500CE00F0B295C01E02AE227BE28D09E
:1006900027BC04D0200E1ED0200E271627AA0BD070
:1006A000279A00C027F02D0E04009EA8FDD7AD6E3E
:1006B00027C000F0276A300E27AA0CD0279A00C066
:1006C00027F02D0E04009EA8FDD7AD6E27C000F0C8
:1006D000276A300E0026005004009EA8FDD7AD6E9C
:1006E000D8922EC032F02DC031F02CC030F02BC08B
:1006F0002FF0366A356A346A0A0E336E45DF03C05E
:100700002EF002C02DF001C02CF000C02BF0292EDD
:100710009CD752EF04F0EA6A240EE96EEF500DE028
:10072000060E016E006A002EFED7012EFBD77B0E4F
:10073000006E002EFED7EF2EF3D761EF04F0F86ABB
:10074000D09E078E810EAF6EA60EAC6E900EAB6E75
:100750001A6A196A186A176AC180C182C184C1966F
:10076000070EB46EC20ED56E850ECD6EC00EF2129F
:10077000D26A9D8AF2121E6A1D6A1C6A1B6A226A6C
:10078000216A206A1F6AB20EF66E020EF76E166AB2
:10079000F2BE168EF29E5FDD16BEF28E939E8A8E9C
:1007A000100E006E002EFED70000939E8A9E938648
:1007B00081A6FDD7CF6ACE6A938681B6FDD7CE508B
:1007C000CFCF03F0236ECFCF24F07AD503C01EF035
:1007D00002C01DF001C01CF000C01BF01EC026F0BE
:1007E0001DC025F01CC024F01BC023F02A6A296A12
:1007F000080E286E830E276E7FD503C026F002C038
:1008000025F001C024F000C023F003C02AF002C08C
:1008100029F001C028F000C027F02E6A2D6A480E8A
:100820002C6E850E2B6EE2D503C026F002C025F09B
:1008300001C024F000C023F087D603C022F002C01C
:1008400021F001C020F000C01FF022501A5C16E316
:100850000BE12150195C12E307E12050185C0EE314
:1008600003E117501F5C0AE24F0E04009EA8FDD75B
:10087000AD6E93908A9093928A8209D04E0E0400B6
:100880009EA8FDD7AD6E93928A9293908A80410E76
:10089000E96E22C026F021C025F020C024F01FC040
:1008A00023F0B9D60D0E04009EA8FDD7AD6E0A0E3A
:1008B00004009EA8FDD7AD6E020E236E960E246E28
:0A08C0002AD7232EFBD76AD70300C6
:020000040030CA
:0E00000000270D0E000081000FC00FE00F4022
:00000001FF
;PIC18F458
;CRC=E3FF  CREATED="12-mars-18 14:32"
