:1000000016EF00F0EA6A070EE96EEF500DE0060EFB
:10001000016E006A002EFED7012EFBD77B0E006E0C
:10002000002EFED7EF2EF3D73CEF00F0F86AD09EFB
:10003000C180C182C184C196070EB46E93908A803C
:10004000939E8A8E200E006E002EFED700D00000F8
:10005000939E8A9E938681A6FDD7CF6ACE6A9386A9
:1000600081B6FDD7CE50056E956A05C08CFF500E47
:10007000066EFA0E076EC6D7062EFBD7DFD7030033
:020000040030CA
:0E00000000220C0E000081000FC00FE00F4028
:00000001FF
;PIC18F458
;CRC=6973  CREATED="26-févr.-18 14:52"
