:040000002BEF04F0EE
:08000800046ED8CF05F0E0CF33
:1000100006F00001E9CF0CF0EACF07F0E1CF08F0DD
:10002000E2CF09F0D9CF0AF0DACF0BF0F3CF12F01C
:10003000F4CF13F0FACF14F000C00EF001C00FF0AF
:1000400002C010F003C011F09DAA2AEF00F09EBA82
:100050002BEF01F00EC000F00FC001F010C002F055
:1000600011C003F00CC0E9FF07C0EAFF078E08C00B
:10007000E1FF09C0E2FF0AC0D9FF0BC0DAFF12C0DE
:10008000F3FF13C0F4FF14C0FAFF045006C0E0FFF2
:1000900005C0D8FF1000646B656B010E666FDA6AED
:1000A000D96A696B5C0E686FEA6A600EE96E69C0B6
:1000B000E2FF68C0E1FF66C067F0D890E550EE024D
:1000C000F3506423F4506523672FF7D764C0DEFF35
:1000D00065C064F0656BD8B0652B682BD8B4692B0C
:1000E000662B66510508E0E11200526A516A506AB7
:1000F0004F6A536A546A010E556EEA6A4A0EE96EF7
:10010000E90604009EAAFDD7AECFECFF0D0EEF5C12
:10011000F8E1EC6A546A545004080DE3036A545041
:100120004A0FE96E000E0320EA6EEF500D08D8B4B6
:1001300002D0542AF0D7010E545C536E535252E051
:10014000036A53504A0FE96E000E0320EA6EEF5027
:100150005F0B39080EE2036A53504A0FE96E000E36
:100160000320EA6E370EEF5C006E016A026A036AD2
:100170000DD0036A53504A0FE96E000E0320EA6E59
:10018000300EEF5C006E016A026A036A03C059F028
:1001900002C058F001C057F000C056F0EACF5BF043
:1001A000E9CF5AF003C05FF002C05EF001C05DF01D
:1001B00000C05CF0636B626B616B55C060F06BDF1D
:1001C0005BC0EAFF5AC0E9FF00504F2601505022A1
:1001D000025051220350522255500A0DF3CF55F0D0
:1001E0005306ACD74A505F0B390807E2370E4A5C1A
:1001F000006E016A026A036A06D0300E4A5C006E25
:10020000016A026A036A03C059F002C058F001C0D3
:1002100057F000C056F003C05FF002C05EF001C0AE
:100220005DF000C05CF0636B626B616B55C060F0A9
:1002300032DF00504F26015050220250512203500D
:1002400052224FC000F050C001F051C002F052C025
:1002500003F02CEF01F049D703C019F002C018F0E9
:1002600001C017F000C016F09E9A2AEF00F0736AE2
:1002700075796766620D0A000900F5520EE0F6CF47
:1002800030F0F7CF31F0F55004009EA8FDD7AD6EE9
:1002900030C0F6FF31C0F7FFEFD752EF04F08E0EFB
:1002A000006E39C001F038C002F0036A015209E162
:1002B00002C001F0026A080E005E015202E1006A0B
:1002C00008D0D89001BE04D0023601360006F9D716
:1002D000019ED3EF02F03850D8B471D0006E3C507C
:1002E000D8B46DD0002604E3810E002668E204D065
:1002F0007F0E005E64E363E039C040F03D50401A79
:10030000398E3D8E3B503F02F4CF42F03A503E02D0
:10031000F4CF03F0F3CF41F03F02F3504226F45004
:100320004122000E03223B503E02F3504226F4507D
:100330004122000E026A0322022239503F02F3508A
:100340004126F4500322000E022239503E02F3509F
:100350000326F4500222000E016A01223B503D02A6
:10036000F3504126F4500322000E022201223A509B
:100370003D02F3500326F4500222000E01223950B0
:100380003D02F3500226F4500122002A01BE05D09E
:1003900041360336023601360006000E41AE0AD061
:1003A000032A02220122015005E1025003E1035019
:1003B00001E1002A40BE018E40AE019E04D0006AD9
:1003C000016A026A036AEAEF02F03C50D8B4A5D091
:1003D000486E4050D8B4A1D0485E05E37F0E482651
:1003E000D8B09BD006D0810E485ED8A096D0D8B4A5
:1003F00094D048C000F0016A026A036A476A3DC0AF
:1004000046F0468E3EC045F03FC044F0190E486E9F
:100410004350445E0DE2010E455E0AE2465E08E28C
:10042000475E06E2472A462A452A4350442628D0FA
:100430004250455E12E2010E465E0FE2475E0DE25B
:10044000472A462A425045264350442619E3452A66
:1004500017E1462A15E1472A13D041508009465E2C
:100460000EE2010E475E0BE2472A41508009462604
:1004700042504526E9E3462AE7E1472AE5D70380CB
:10048000482E01D00BD0D8904436453646364736F4
:10049000D8900336023601364936BAD749A006D07D
:1004A000D890013202320332493202D0000635E0E0
:1004B00049BE1ED0D890443645364636473643505E
:1004C000445E07E2010E455E04E2465E02E2475EDC
:1004D0001AE34250455E05E2010E465E02E2475EC7
:1004E00012E341508009465E03E2010E475E0BE3D2
:1004F000032A09E1022A07E1012A05E1002A0DE0A9
:100500000132023203323DC048F04150481A48AE31
:1005100002D0018E06D0019E04D0006A016A026AF0
:10052000036A01EF03F03850B608386E036A39C029
:100530003CF0398ED89039323A323B3203320232B3
:1005400001320032382EF6D73CAE0BD0001E011E11
:10055000021E031E002AD8B4012AD8B4022AD8B435
:10056000032A0AEF03F0336A326A316A306A376A63
:10057000366A356A346A939E8A8E100E006E002E9B
:10058000FED70000939E8A9E938681A6FDD7CF6AF0
:10059000CE6A938681B6FDD7CE50CFCF03F0386EAA
:1005A000CFCF39F07CD603C033F002C032F001C0A7
:1005B00031F000C030F033C03BF032C03AF031C00F
:1005C00039F030C038F03F6A3E6A080E3D6E830E47
:1005D0003C6E81D603C03BF002C03AF001C039F056
:1005E00000C038F003C03FF002C03EF001C03DF053
:1005F00000C03CF0436A426A480E416E850E406E70
:10060000E4D603C03BF002C03AF001C039F000C0AC
:1006100038F089D703C037F002C036F001C035F09A
:1006200000C034F034C000F035C001F036C002F034
:1006300037C003F01200EA6A310EE96EEF500DE0A8
:10064000060E016E006A002EFED7012EFBD77B0E30
:10065000006E002EFED7EF2EF3D71200D8B203D0D3
:10066000EA6A440EE96E006A016A026A036A446A31
:10067000456A466A476A43504210411040102CE0D8
:10068000200E486ED8903C363D363E363F364436D6
:100690004536463647364350475C08E14250465C93
:1006A00005E14150455C02E14050445C0FE340509D
:1006B000445E4150D8A0413C455E4250D8A0423CE7
:1006C000465E4350D8A0433C475ED8800036013692
:1006D00002360336482ED6D744C0EFFF45C0ECFFA4
:1006E00046C0ECFF47C0ECFF1200E950346E3B0EF1
:1006F0003B6E9A0E3A6ECA0E396E386A0A0E366E24
:10070000D882EA6A300EE96E33C03FF032C03EF064
:1007100031C03DF030C03CF03BC043F03AC042F045
:1007200039C041F038C040F099DF015000520FE16C
:100730003650010A0CE034500BE00F0B365C01E040
:100740000EE234BE0CD034BC03D0200E02D0346A8A
:10075000300E0026005004009EA8FDD7AD6ED89242
:100760003BC03FF03AC03EF039C03DF038C03CF0ED
:10077000436A426A416A0A0E406E70DF03C03BF072
:1007800002C03AF001C039F000C038F0362EB8D7B8
:10079000120020C0EAFF1FC0E9FF3CC0EFFFE92ABA
:1007A000D8B4EA2AEF6A1F2AD8B4202A10EF04F03E
:1007B000E950346E3B0E3B6E9A0E3A6ECA0E396E9D
:1007C000386A0A0E366ED882EA6A300EE96E33C095
:1007D0003FF032C03EF031C03DF030C03CF03BC095
:1007E00043F03AC042F039C041F038C040F036DF43
:1007F000015000520FE13650010A0CE034500BE07A
:100800000F0B365C01E00CE234BE0AD034BC03D0DE
:10081000200E02D0346A300E002600C03CF0B9D75A
:10082000D8923BC03FF03AC03EF039C03DF038C0EE
:100830003CF0436A426A416A0A0E406E0FDF03C011
:100840003BF002C03AF001C039F000C038F0362E5B
:10085000BAD7B5EF04F0F86AD09E078E810EAF6E5E
:10086000A60EAC6E900EAB6E196A186A176A166AFD
:10087000206A1F6AC180C182C184C196070EB46E0E
:10088000C20ED56E850ECD6EC00EF212D26A9D8A52
:10089000F212246A236A226A216A6E0EF66E020E32
:1008A000F76EEAD460DE03C024F002C023F001C07A
:1008B00022F000C021F02450195C11E30BE1235019
:1008C000185C0DE307E12250175C09E303E11650C1
:1008D000215C05E293908A9093928A8238D0939219
:1008E0008A9293908A70040E306EFA0E316EA3DEF7
:1008F000302EFBD738DE03C024F002C023F001C045
:1009000022F000C021F0410EE96E24C033F023C074
:1009100032F022C031F021C030F0E7DE0D0E0400CD
:100920009EA8FDD7AD6E0A0E04009EA8FDD7AD6E41
:100930001950245C0CE3D5E11850235C08E3D1E1A5
:100940001750225C04E3CDE12150165CCAE3206A13
:10095000250E1F6E410EE96E24C033F023C032F025
:1009600022C031F021C030F023D7410EE96E24C0FF
:1009700033F023C032F022C031F021C030F0B5DEB8
:100980000D0E04009EA8FDD7AD6E0A0E04009EA8B1
:10099000FDD7AD6E020E306E960E316E4CDE302EEF
:0609A000FBD780D7030025
:020000040030CA
:0E00000000270D0E000081000FC00FE00F4022
:00000001FF
;PIC18F458
;CRC=1623  CREATED="01-avr.-18 18:11"
