:100000002AEF00F0307830310000EA6A060EE96E1F
:10001000EF500DE0060E016E006A002EFED7012E95
:10002000FBD77B0E006E002EFED7EF2EF3D712000B
:100030000900F5520DE0F6CF06F0F7CF07F0F550C6
:100040009EA8FED7AD6E06C0F6FF07C0F7FFF0D73B
:1000500061EF00F0F86AD09E810EAF6EA60EAC6E16
:10006000900EAB6EC180C182C184C196070EB46E82
:10007000850ECD6ED26A640E066EC7DF93908A80BD
:10008000939E8A8E310E006E002EFED700D0939E76
:100090008A9E93908A9093928A82938681A6FDD7B6
:1000A000CF6ACE6A938681B6FDD793928A92CE505C
:1000B000056E956A05C08CFF040EF66E000EF76E95
:0C00C000B7D7640E066EA1DFD6D7030090
:020000040030CA
:0E00000000220C0E000081000FC00FE00F4028
:00000001FF
;PIC18F458
;CRC=BD58  CREATED="26-févr.-18 16:26"
