:0400000070EF03F0AA
:08000800046ED8CF05F0E0CF33
:1000100006F00001E9CF0CF0EACF07F0E1CF08F0DD
:10002000E2CF09F0D9CF0AF0DACF0BF0F3CF12F01C
:10003000F4CF13F0FACF14F000C00EF001C00FF0AF
:1000400002C010F003C011F09DAA2AEF00F09EBA82
:100050002BEF01F00EC000F00FC001F010C002F055
:1000600011C003F00CC0E9FF07C0EAFF078E08C00B
:10007000E1FF09C0E2FF0AC0D9FF0BC0DAFF12C0DE
:10008000F3FF13C0F4FF14C0FAFF045006C0E0FFF2
:1000900005C0D8FF1000626B636B010E646FDA6AF3
:1000A000D96A676B5A0E666FEA6A5E0EE96E67C0C0
:1000B000E2FF66C0E1FF64C065F0D890E550EE0253
:1000C000F3506223F4506323652FF7D762C0DEFF3D
:1000D00063C062F0636BD8B0632B662BD8B4672B18
:1000E000642B64510508E0E11200506A4F6A4E6AC1
:1000F0004D6A516A526A010E536EEA6A480EE96E01
:10010000E90604009EAAFDD7AECFECFF0D0EEF5C12
:10011000F8E1EC6A526A525004080DE3036A525047
:10012000480FE96E000E0320EA6EEF500D08D8B4B8
:1001300002D0522AF0D7010E525C516E515252E059
:10014000036A5150480FE96E000E0320EA6EEF502B
:100150005F0B39080EE2036A5150480FE96E000E3A
:100160000320EA6E370EEF5C006E016A026A036AD2
:100170000DD0036A5150480FE96E000E0320EA6E5D
:10018000300EEF5C006E016A026A036A03C057F02A
:1001900002C056F001C055F000C054F0EACF59F04B
:1001A000E9CF58F003C05DF002C05CF001C05BF025
:1001B00000C05AF0616B606B5F6A53C05EF06BDF2A
:1001C00059C0EAFF58C0E9FF00504D2601504E22A9
:1001D00002504F220350502253500A0DF3CF53F0D8
:1001E0005106ACD748505F0B390807E2370E485C20
:1001F000006E016A026A036A06D0300E485C006E27
:10020000016A026A036A03C057F002C056F001C0D7
:1002100055F000C054F003C05DF002C05CF001C0B6
:100220005BF000C05AF0616B606B5F6A53C05EF0B8
:1002300032DF00504D2601504E2202504F22035013
:1002400050224DC000F04EC001F04FC002F050C02F
:1002500003F02CEF01F049D703C019F002C018F0E9
:1002600001C017F000C016F09E9A2AEF00F0736AE2
:100270007579676662003A0D0A000900F5520EE0D2
:10028000F6CF2FF0F7CF30F0F55004009EA8FDD741
:10029000AD6E2FC0F6FF30C0F7FFEFD712008E0E05
:1002A000006E30C001F02FC002F0036A015209E174
:1002B00002C001F0026A080E005E015202E1006A0B
:1002C00008D0D89001BE04D0023601360006F9D716
:1002D000019EB3EF03F02F50D8B471D0006E3350AD
:1002E000D8B46DD0002604E3810E002668E204D065
:1002F0007F0E005E64E363E030C037F03450371A9D
:10030000308E348E32503602F4CF39F0315035020F
:10031000F4CF03F0F3CF38F03602F3503926F4501F
:100320003822000E032232503502F3503926F450A1
:100330003822000E026A0322022230503602F350A5
:100340003826F4500322000E022230503502F350BA
:100350000326F4500222000E016A012232503402B8
:10036000F3503826F4500322000E022201223150AD
:100370003402F3500326F4500222000E01223050C2
:100380003402F3500226F4500122002A01BE05D0A7
:1003900038360336023601360006000E38AE0AD073
:1003A000032A02220122015005E1025003E1035019
:1003B00001E1002A37BE018E37AE019E04D0006AEB
:1003C000016A026A036ACAEF03F03350D8B4A5D0B9
:1003D0003F6E3750D8B4A1D03F5E05E37F0E3F2675
:1003E000D8B09BD006D0810E3F5ED8A096D0D8B4AE
:1003F00094D03FC000F0016A026A036A3E6A34C0CA
:100400003DF03D8E35C03CF036C03BF0190E3F6EDE
:100410003A503B5E0DE2010E3C5E0AE23D5E08E2B0
:100420003E5E06E23E2A3D2A3C2A3A503B2628D030
:1004300039503C5E12E2010E3D5E0FE23E5E0DE27F
:100440003E2A3D2A39503C263A503B2619E33C2AA5
:1004500017E13D2A15E13E2A13D0385080093D5E50
:100460000EE2010E3E5E0BE23E2A385080093D2628
:1004700039503C26E9E33D2AE7E13E2AE5D70380EF
:100480003F2E01D00BD0D8903B363C363D363E3621
:10049000D8900336023601364036BAD740A006D08F
:1004A000D890013202320332403202D0000635E0E9
:1004B00040BE1ED0D8903B363C363D363E363A5094
:1004C0003B5E07E2010E3C5E04E23D5E02E23E5E00
:1004D0001AE339503C5E05E2010E3D5E02E23E5EEB
:1004E00012E3385080093D5E03E2010E3E5E0BE3ED
:1004F000032A09E1022A07E1012A05E1002A0DE0A9
:1005000001320232033234C03FF038503F1A3FAE5E
:1005100002D0018E06D0019E04D0006A016A026AF0
:10052000036AE1EF03F02F50B6082F6E036A30C064
:1005300033F0308ED89030323132323203320232E0
:10054000013200322F2EF6D733AE0BD0001E011E23
:10055000021E031E002AD8B4012AD8B4022AD8B435
:10056000032AEAEF03F0D8B203D0EA6A430EE96E39
:10057000006A016A026A036A436A446A456A466A13
:100580004250411040103F102CE0200E476ED89092
:100590003B363C363D363E364336443645364636A7
:1005A0004250465C08E14150455C05E14050445CE6
:1005B00002E13F50435C0FE33F50435E4050D8A000
:1005C000403C445E4150D8A0413C455E4250D8A0DA
:1005D000423C465ED8800036013602360336472E4E
:1005E000D6D743C0EFFF44C0ECFF45C0ECFF46C088
:1005F000ECFF12001BC0EAFF1AC0E9FF3BC0EFFF8F
:10060000E92AD8B4EA2AEF6A1A2AD8B41B2A41EF99
:1006100003F0E950336E3B0E3A6E9A0E396ECA0EF5
:10062000386E376A0A0E356ED882EA6A2F0EE96E86
:1006300032C03EF031C03DF030C03CF02FC03BF046
:100640003AC042F039C041F038C040F037C03FF006
:100650008ADF015000520FE13550010A0CE033509F
:100660000BE00F0B355C01E00CE233BE0AD033BC6B
:1006700003D0200E02D0336A300E002600C03BF0BB
:10068000B9D7D8923AC03EF039C03DF038C03CF0FE
:1006900037C03BF0426A416A406A0A0E3F6E63DF30
:1006A00003C03AF002C039F001C038F000C037F0A2
:1006B000352EBAD718EF04F0EA6A300EE96EEF5023
:1006C0000DE0060E016E006A002EFED7012EFBD74C
:1006D0007B0E006E002EFED7EF2EF3D74BEF04F00B
:1006E000F86AD09E078E810EAF6EA60EAC6E900E8D
:1006F000AB6E196A186A176A166A1B6A1A6AC18091
:10070000C182C184C196070EB46EC20ED56E850E2D
:10071000CD6EC00EF212D26A9D8AF2121F6A1E6A54
:100720001D6A1C6A236A226A216A206A6E0EF66EAE
:10073000020EF76EA2DD939E8A8E100E006E002EC2
:10074000FED70000939E8A9E938681A6FDD7CF6A2E
:10075000CE6A938681B6FDD7CE50CFCF03F02F6EF1
:10076000CFCF30F09CD503C01FF002C01EF001C0F7
:100770001DF000C01CF01FC032F01EC031F01DC0C3
:1007800030F01CC02FF0366A356A080E346E830EC6
:10079000336EA1D503C032F002C031F001C030F099
:1007A00000C02FF003C036F002C035F001C034F0B5
:1007B00000C033F03A6A396A480E386E850E376EDB
:1007C00004D603C032F002C031F001C030F000C0E6
:1007D0002FF0A9D603C023F002C022F001C021F0FF
:1007E00000C020F02350195C11E30BE12250185C8B
:1007F0000DE307E12150175C09E303E11650205C8B
:1008000005E293908A9093928A8204D093928A927E
:1008100093908A801B6A240E1A6E410EE96E23C0E3
:1008200032F022C031F021C030F020C02FF0F1D6DC
:100830002E6A2E50080825E3036A2E50240FE96E15
:10084000000E0320EA6EEF5219E0036A2E50240FC7
:10085000E96E000E0320EA6EEFCF2FF02F50040058
:100860009EA8FDD7AD6E0D0E04009EA8FDD7AD6EFF
:100870000A0E04009EA8FDD7AD6E01D002D02E2A2C
:10088000D8D7760EF66E020EF76EF7DC020E2F6EDC
:0E089000960E306E11D72F2EFBD74DD70300DA
:020000040030CA
:0E00000000270D0E000081000FC00FE00F4022
:00000001FF
;PIC18F458
;CRC=EA99  CREATED="27-mars-18 14:22"
