:100000007BEF03F064697374616E6365206F6B0D41
:100010000A0064697374616E63652074726F702086
:10002000636F757274650D0A0000457272657572B2
:100030000D0A00000900F5520EE0F6CF17F0F7CFD9
:1000400018F0F55004009EA8FDD7AD6E17C0F6FF5E
:1000500018C0F7FFEFD71200136A146A156A010E71
:10006000166EEA6A0E0EE96EE90604009EAAFDD736
:10007000AECFECFF0D0EEF5CF8E1EC6A0E505F0BBB
:10008000390803E2370E0E5C02D0300E0E5C010818
:1000900021E30E505F0B390803E2370E0E5C02D0ED
:1000A000300E0E5C01081CE10F505F0B390803E2B3
:1000B000370E0F5C02D0300E0F5C010811E21050B9
:1000C0005F0B390803E2370E105C02D0300E105C73
:1000D000080806E22A0EF66E000EF76EABDF4BD074
:1000E000156A155004080DE3036A15500E0FE96EEA
:1000F000000E0320EA6EEF500D08D8B402D0152A86
:10010000F0D7010E155C146E145227E0036A1450E8
:100110000E0FE96E000E0320EA6EEF505F0B3908F8
:100120000AE2036A14500E0FE96E000E0320EA6E15
:10013000370EEF5C09D0036A14500E0FE96E000E03
:100140000320EA6E300EEF5C1602F35013261650B1
:100150000A0DF3CF16F01406D7D70E505F0B3908EF
:1001600003E2370E0E5C02D0300E0E5C1602F35026
:10017000132613C001F09AEF03F08E0E006E0FC02D
:1001800001F00EC002F0036A015209E102C001F061
:10019000026A080E005E015202E1006A08D0D8909F
:1001A00001BE04D0023601360006F9D7019E1200C6
:1001B0001B50D8B471D0006E1F50D8B46DD000263B
:1001C00004E3810E002668E204D07F0E005E64E343
:1001D00063E01CC023F02050231A1C8E208E1E507A
:1001E0002202F4CF25F01D502102F4CF03F0F3CF0B
:1001F00024F02202F3502526F4502422000E03227C
:100200001E502102F3502526F4502422000E026ACB
:10021000032202221C502202F3502426F45003220F
:10022000000E02221C502102F3500326F450022239
:10023000000E016A01221E502002F3502426F450C1
:100240000322000E022201221D502002F350032639
:10025000F4500222000E01221C502002F35002260C
:10026000F4500122002A01BE05D02436033602369E
:1002700001360006000E24AE0AD0032A0222012213
:10028000015005E1025003E1035001E1002A23BEC1
:10029000018E23AE019E04D0006A016A026A036ADD
:1002A00012001250D8B4A5D01E6E1650D8B4A1D0EA
:1002B0001E5E05E37F0E1E26D8B09BD006D0810EB1
:1002C0001E5ED8A096D0D8B494D01EC000F0016AAB
:1002D000026A036A1D6A13C01CF01C8E14C01BF056
:1002E00015C01AF0190E1E6E19501A5E0DE2010E9D
:1002F0001B5E0AE21C5E08E21D5E06E21D2A1C2A45
:100300001B2A19501A2628D018501B5E12E2010E23
:100310001C5E0FE21D5E0DE21D2A1C2A18501B26D2
:1003200019501A2619E31B2A17E11C2A15E11D2A68
:1003300013D0175080091C5E0EE2010E1D5E0BE209
:100340001D2A175080091C2618501B26E9E31C2A79
:10035000E7E11D2AE5D703801E2E01D00BD0D890EF
:100360001A361B361C361D36D89003360236013637
:100370001F36BAD71FA006D0D890013202320332FE
:100380001F3202D0000635E01FBE1ED0D8901A36AC
:100390001B361C361D3619501A5E07E2010E1B5E15
:1003A00004E21C5E02E21D5E1AE318501B5E05E2C9
:1003B000010E1C5E02E21D5E12E3175080091C5EF6
:1003C00003E2010E1D5E0BE3032A09E1022A07E1A5
:1003D000012A05E1002A0DE001320232033213C086
:1003E0001EF017501E1A1EAE02D0018E06D0019EBE
:1003F00004D0006A016A026A036AE2EF03F01B504C
:10040000B6081B6E036A1CC01FF01C8ED8901C32ED
:100410001D321E3203320232013200321B2EF6D759
:100420001FAE0BD0001E011E021E031E002AD8B4F0
:10043000012AD8B4022AD8B4032A8DEF02F0D8B228
:1004400003D0EA6A230EE96E006A016A026A036A4F
:10045000236A246A256A266A2250211020101F1060
:100460002CE0200E276ED8901B361C361D361E360B
:1004700023362436253626362250265C08E12150C4
:10048000255C05E12050245C02E11F50235C0FE352
:100490001F50235E2050D8A0203C245E2150D8A0BD
:1004A000213C255E2250D8A0223C265ED880003612
:1004B000013602360336272ED6D723C0EFFF24C0DD
:1004C000ECFF25C0ECFF26C0ECFF1200E950136ED4
:1004D0001250156E19E011C01EF010C01DF00FC0B3
:1004E0001CF00EC01BF0226A216A200E206E820EC4
:1004F0001F6E5EDE03C011F002C010F001C00FF0ED
:1005000000C00EF0152EE7D711C01EF010C01DF070
:100510000FC01CF00EC01BF072D703C011F002C058
:1005200010F001C00FF000C00EF011AE0DD0130698
:10053000138A0E1E0F1E101E111E0E2AD8B40F2A6B
:10054000D8B4102AD8B4112A3B0E1A6E9A0E196E1E
:10055000CA0E186E176A0A0E156E1250D8B4132AF6
:10056000D882EA6A0E0EE96E11C01EF010C01DF0AE
:100570000FC01CF00EC01BF01AC022F019C021F0F1
:1005800018C020F017C01FF05ADF015000520FE1D1
:100590001228155C0CE013500CE00F0B155C01E009
:1005A0003FE213BE3DD013BC04D0200E33D0200E4A
:1005B000131613AA0ED0139A1250D8A41306005083
:1005C000136E2D0E04009EA8FDD7AD6E1350006E65
:1005D000136A1250155C0CE10050136E2E0E0400CD
:1005E0009EA8FDD7AD6E1350006E200E1316000EA0
:1005F000300E13AA0FD0139A1250D8A4130600502D
:10060000136E2D0E04009EA8FDD7AD6E1350006E24
:10061000136A300E0026005004009EA8FDD7AD6E70
:10062000D8921AC01EF019C01DF018C01CF017C0D7
:100630001BF0226A216A206A0A0E1F6E00DF03C0C7
:100640001AF002C019F001C018F000C017F0152E02
:1006500087D7F7EF03F00FC016F01350161A16AE37
:1006600005D0D894D8900FBED8802FD00FC016F0E8
:1006700012C017F00E50175E06E016AE26D0D85006
:10068000010AD86E22D013C017F00F50175E06E093
:1006900016AE1BD0D850010AD86E17D014C017F070
:1006A0001050175E06E016AE10D0D850010AD86E72
:1006B0000CD015C017F01150175E06E016AE05D02D
:1006C000D850010AD86E01D0D89016EF04F0EA6A2B
:1006D0000F0EE96EEF500DE0060E016E006A002E5F
:1006E000FED7012EFBD77B0E006E002EFED7EF2E1D
:1006F000F3D729EF04F0F86AD09E810EAF6EA60EF4
:10070000AC6E900EAB6EC180C182C184C196070EE3
:10071000B46EC20ED56E850ECD6EC00EF212D26AC8
:10072000086A076A066A056A0C6A0B6A0A6A096A35
:100730000D6A92D401C00DF0939E8A8E100E006E49
:10074000002EFED70000939E8A9E938681A6FDD739
:10075000CF6ACE6A938681B6FDD7CE50CFCF03F055
:100760000E6ECFCF0FF009DD03C008F002C007F016
:1007700001C006F000C005F008C01EF007C01DF063
:1007800006C01CF005C01BF0226A216A080E206E0C
:10079000830E1F6E0DDD03C011F002C010F001C00A
:1007A0000FF000C00EF003C015F002C014F001C03D
:1007B00013F000C012F0196A186A480E176E850E01
:1007C000166E6FD503C00CF002C00BF001C00AF02A
:1007D00000C009F0890EE96E0CC011F00BC010F0DA
:1007E0000AC00FF009C00EF0020E126E6FD60D0E89
:1007F00004009EA8FDD7AD6E0A0E04009EA8FDD78A
:10080000AD6E0F6A0DC00EF0B8DC03C011F002C06F
:1008100010F001C00FF000C00EF00CC015F00BC0BE
:1008200014F00AC013F009C012F015D707E3040E44
:10083000F66E000EF76E1AEC00F006D0120EF66E91
:10084000000EF76E1AEC00F0020E0E6E960E0F6E92
:0A0850003ED70E2EFBD770D7030031
:020000040030CA
:0E00000000270D0E000081000FC00FE00F4022
:00000001FF
;PIC18F458
;CRC=8C51  CREATED="11-mars-18 17:30"
